{
  "contractName": "TokenDistributor",
  "abi": [
    {
      "inputs": [],
      "stateMutability": "nonpayable",
      "type": "constructor"
    },
    {
      "anonymous": false,
      "inputs": [
        {
          "indexed": true,
          "internalType": "address",
          "name": "previousOwner",
          "type": "address"
        },
        {
          "indexed": true,
          "internalType": "address",
          "name": "newOwner",
          "type": "address"
        }
      ],
      "name": "OwnershipTransferred",
      "type": "event"
    },
    {
      "inputs": [],
      "name": "owner",
      "outputs": [
        {
          "internalType": "address",
          "name": "",
          "type": "address"
        }
      ],
      "stateMutability": "view",
      "type": "function",
      "constant": true
    },
    {
      "inputs": [],
      "name": "renounceOwnership",
      "outputs": [],
      "stateMutability": "nonpayable",
      "type": "function"
    },
    {
      "inputs": [
        {
          "internalType": "address",
          "name": "newOwner",
          "type": "address"
        }
      ],
      "name": "transferOwnership",
      "outputs": [],
      "stateMutability": "nonpayable",
      "type": "function"
    },
    {
      "inputs": [
        {
          "internalType": "address[]",
          "name": "recipients",
          "type": "address[]"
        },
        {
          "internalType": "uint256[]",
          "name": "amounts",
          "type": "uint256[]"
        },
        {
          "internalType": "address",
          "name": "token",
          "type": "address"
        }
      ],
      "name": "distributeTokens",
      "outputs": [],
      "stateMutability": "nonpayable",
      "type": "function"
    },
    {
      "inputs": [
        {
          "internalType": "address",
          "name": "target",
          "type": "address"
        },
        {
          "internalType": "bytes",
          "name": "data",
          "type": "bytes"
        }
      ],
      "name": "delegateCallLogic",
      "outputs": [],
      "stateMutability": "nonpayable",
      "type": "function"
    }
  ],
  "bytecode": "0x608060405234801561001057600080fd5b5060006100216100c460201b60201c565b9050806000806101000a81548173ffffffffffffffffffffffffffffffffffffffff021916908373ffffffffffffffffffffffffffffffffffffffff1602179055508073ffffffffffffffffffffffffffffffffffffffff16600073ffffffffffffffffffffffffffffffffffffffff167f8be0079c531659141344cd1fd0a4f28419497f9722a3daafe3b4186f6b6457e060405160405180910390a3506100cc565b600033905090565b61130e806100db6000396000f3fe608060405234801561001057600080fd5b50600436106100575760003560e01c806312a507401461005c57806356f8632714610078578063715018a6146100945780638da5cb5b1461009e578063f2fde38b146100bc575b600080fd5b61007660048036038101906100719190610ba6565b6100d8565b005b610092600480360381019061008d9190610bfe565b610207565b005b61009c61046e565b005b6100a66105a8565b6040516100b39190610fff565b60405180910390f35b6100d660048036038101906100d19190610b7d565b6105d1565b005b6100e061077a565b73ffffffffffffffffffffffffffffffffffffffff166100fe6105a8565b73ffffffffffffffffffffffffffffffffffffffff1614610154576040517f08c379a000000000000000000000000000000000000000000000000000000000815260040161014b906110e5565b60405180910390fd5b60008373ffffffffffffffffffffffffffffffffffffffff16838360405161017d929190610fcf565b600060405180830381855af49150503d80600081146101b8576040519150601f19603f3d011682016040523d82523d6000602084013e6101bd565b606091505b5050905080610201576040517f08c379a00000000000000000000000000000000000000000000000000000000081526004016101f8906110c5565b60405180910390fd5b50505050565b61020f61077a565b73ffffffffffffffffffffffffffffffffffffffff1661022d6105a8565b73ffffffffffffffffffffffffffffffffffffffff1614610283576040517f08c379a000000000000000000000000000000000000000000000000000000000815260040161027a906110e5565b60405180910390fd5b8282905085859050146102cb576040517f08c379a00000000000000000000000000000000000000000000000000000000081526004016102c2906110a5565b60405180910390fd5b600081905060005b8686905081101561046557600073ffffffffffffffffffffffffffffffffffffffff1687878381811061032f577f4e487b7100000000000000000000000000000000000000000000000000000000600052603260045260246000fd5b90506020020160208101906103449190610b7d565b73ffffffffffffffffffffffffffffffffffffffff16141561039b576040517f08c379a000000000000000000000000000000000000000000000000000000000815260040161039290611105565b60405180910390fd5b6104528787838181106103d7577f4e487b7100000000000000000000000000000000000000000000000000000000600052603260045260246000fd5b90506020020160208101906103ec9190610b7d565b868684818110610425577f4e487b7100000000000000000000000000000000000000000000000000000000600052603260045260246000fd5b905060200201358473ffffffffffffffffffffffffffffffffffffffff166107829092919063ffffffff16565b808061045d90611221565b9150506102d3565b50505050505050565b61047661077a565b73ffffffffffffffffffffffffffffffffffffffff166104946105a8565b73ffffffffffffffffffffffffffffffffffffffff16146104ea576040517f08c379a00000000000000000000000000000000000000000000000000000000081526004016104e1906110e5565b60405180910390fd5b600073ffffffffffffffffffffffffffffffffffffffff1660008054906101000a900473ffffffffffffffffffffffffffffffffffffffff1673ffffffffffffffffffffffffffffffffffffffff167f8be0079c531659141344cd1fd0a4f28419497f9722a3daafe3b4186f6b6457e060405160405180910390a360008060006101000a81548173ffffffffffffffffffffffffffffffffffffffff021916908373ffffffffffffffffffffffffffffffffffffffff160217905550565b60008060009054906101000a900473ffffffffffffffffffffffffffffffffffffffff16905090565b6105d961077a565b73ffffffffffffffffffffffffffffffffffffffff166105f76105a8565b73ffffffffffffffffffffffffffffffffffffffff161461064d576040517f08c379a0000000000000000000000000000000000000000000000000000000008152600401610644906110e5565b60405180910390fd5b600073ffffffffffffffffffffffffffffffffffffffff168173ffffffffffffffffffffffffffffffffffffffff1614156106bd576040517f08c379a00000000000000000000000000000000000000000000000000000000081526004016106b490611065565b60405180910390fd5b8073ffffffffffffffffffffffffffffffffffffffff1660008054906101000a900473ffffffffffffffffffffffffffffffffffffffff1673ffffffffffffffffffffffffffffffffffffffff167f8be0079c531659141344cd1fd0a4f28419497f9722a3daafe3b4186f6b6457e060405160405180910390a3806000806101000a81548173ffffffffffffffffffffffffffffffffffffffff021916908373ffffffffffffffffffffffffffffffffffffffff16021790555050565b600033905090565b6108038363a9059cbb60e01b84846040516024016107a192919061101a565b604051602081830303815290604052907bffffffffffffffffffffffffffffffffffffffffffffffffffffffff19166020820180517bffffffffffffffffffffffffffffffffffffffffffffffffffffffff8381831617835250505050610808565b505050565b600061086a826040518060400160405280602081526020017f5361666545524332303a206c6f772d6c6576656c2063616c6c206661696c65648152508573ffffffffffffffffffffffffffffffffffffffff166108cf9092919063ffffffff16565b90506000815111156108ca578080602001905181019061088a9190610c87565b6108c9576040517f08c379a00000000000000000000000000000000000000000000000000000000081526004016108c090611145565b60405180910390fd5b5b505050565b60606108de84846000856108e7565b90509392505050565b60608247101561092c576040517f08c379a000000000000000000000000000000000000000000000000000000000815260040161092390611085565b60405180910390fd5b610935856109fb565b610974576040517f08c379a000000000000000000000000000000000000000000000000000000000815260040161096b90611125565b60405180910390fd5b6000808673ffffffffffffffffffffffffffffffffffffffff16858760405161099d9190610fe8565b60006040518083038185875af1925050503d80600081146109da576040519150601f19603f3d011682016040523d82523d6000602084013e6109df565b606091505b50915091506109ef828286610a0e565b92505050949350505050565b600080823b905060008111915050919050565b60608315610a1e57829050610a6e565b600083511115610a315782518084602001fd5b816040517f08c379a0000000000000000000000000000000000000000000000000000000008152600401610a659190611043565b60405180910390fd5b9392505050565b600081359050610a84816112aa565b92915050565b60008083601f840112610a9c57600080fd5b8235905067ffffffffffffffff811115610ab557600080fd5b602083019150836020820283011115610acd57600080fd5b9250929050565b60008083601f840112610ae657600080fd5b8235905067ffffffffffffffff811115610aff57600080fd5b602083019150836020820283011115610b1757600080fd5b9250929050565b600081519050610b2d816112c1565b92915050565b60008083601f840112610b4557600080fd5b8235905067ffffffffffffffff811115610b5e57600080fd5b602083019150836001820283011115610b7657600080fd5b9250929050565b600060208284031215610b8f57600080fd5b6000610b9d84828501610a75565b91505092915050565b600080600060408486031215610bbb57600080fd5b6000610bc986828701610a75565b935050602084013567ffffffffffffffff811115610be657600080fd5b610bf286828701610b33565b92509250509250925092565b600080600080600060608688031215610c1657600080fd5b600086013567ffffffffffffffff811115610c3057600080fd5b610c3c88828901610a8a565b9550955050602086013567ffffffffffffffff811115610c5b57600080fd5b610c6788828901610ad4565b93509350506040610c7a88828901610a75565b9150509295509295909350565b600060208284031215610c9957600080fd5b6000610ca784828501610b1e565b91505092915050565b610cb981611197565b82525050565b6000610ccb838561117b565b9350610cd88385846111df565b82840190509392505050565b6000610cef82611165565b610cf9818561117b565b9350610d098185602086016111ee565b80840191505092915050565b6000610d2082611170565b610d2a8185611186565b9350610d3a8185602086016111ee565b610d4381611299565b840191505092915050565b6000610d5b602683611186565b91507f4f776e61626c653a206e6577206f776e657220697320746865207a65726f206160008301527f64647265737300000000000000000000000000000000000000000000000000006020830152604082019050919050565b6000610dc1602683611186565b91507f416464726573733a20696e73756666696369656e742062616c616e636520666f60008301527f722063616c6c00000000000000000000000000000000000000000000000000006020830152604082019050919050565b6000610e27600783611186565b91507f494e565f4c454e000000000000000000000000000000000000000000000000006000830152602082019050919050565b6000610e67600c83611186565b91507f494e565f44454c454741544500000000000000000000000000000000000000006000830152602082019050919050565b6000610ea7602083611186565b91507f4f776e61626c653a2063616c6c6572206973206e6f7420746865206f776e65726000830152602082019050919050565b6000610ee7600883611186565b91507f494e565f414444520000000000000000000000000000000000000000000000006000830152602082019050919050565b6000610f27601d83611186565b91507f416464726573733a2063616c6c20746f206e6f6e2d636f6e74726163740000006000830152602082019050919050565b6000610f67602a83611186565b91507f5361666545524332303a204552433230206f7065726174696f6e20646964206e60008301527f6f742073756363656564000000000000000000000000000000000000000000006020830152604082019050919050565b610fc9816111d5565b82525050565b6000610fdc828486610cbf565b91508190509392505050565b6000610ff48284610ce4565b915081905092915050565b60006020820190506110146000830184610cb0565b92915050565b600060408201905061102f6000830185610cb0565b61103c6020830184610fc0565b9392505050565b6000602082019050818103600083015261105d8184610d15565b905092915050565b6000602082019050818103600083015261107e81610d4e565b9050919050565b6000602082019050818103600083015261109e81610db4565b9050919050565b600060208201905081810360008301526110be81610e1a565b9050919050565b600060208201905081810360008301526110de81610e5a565b9050919050565b600060208201905081810360008301526110fe81610e9a565b9050919050565b6000602082019050818103600083015261111e81610eda565b9050919050565b6000602082019050818103600083015261113e81610f1a565b9050919050565b6000602082019050818103600083015261115e81610f5a565b9050919050565b600081519050919050565b600081519050919050565b600081905092915050565b600082825260208201905092915050565b60006111a2826111b5565b9050919050565b60008115159050919050565b600073ffffffffffffffffffffffffffffffffffffffff82169050919050565b6000819050919050565b82818337600083830152505050565b60005b8381101561120c5780820151818401526020810190506111f1565b8381111561121b576000848401525b50505050565b600061122c826111d5565b91507fffffffffffffffffffffffffffffffffffffffffffffffffffffffffffffffff82141561125f5761125e61126a565b5b600182019050919050565b7f4e487b7100000000000000000000000000000000000000000000000000000000600052601160045260246000fd5b6000601f19601f8301169050919050565b6112b381611197565b81146112be57600080fd5b50565b6112ca816111a9565b81146112d557600080fd5b5056fea264697066735822122098ef541a68a75837825955652f3b53144bdfb836fc43c78ba84fbc91f435530964736f6c63430008000033",
  "immutableReferences": {},
  "source": "pragma solidity 0.8.0;\n\nimport \"@openzeppelin/contracts/token/ERC20/IERC20.sol\";\nimport \"@openzeppelin/contracts/token/ERC20/utils/SafeERC20.sol\";\nimport \"@openzeppelin/contracts/access/Ownable.sol\";\n\ncontract TokenDistributor is Ownable {\n    using SafeERC20 for IERC20;\n\n    constructor() Ownable() {}\n\n    function distributeTokens(\n        address[] calldata recipients,\n        uint256[] calldata amounts,\n        address token\n    ) external onlyOwner {\n        require(recipients.length == amounts.length, \"INV_LEN\");\n        IERC20 tokenToDistribute = IERC20(token);\n\n        for (uint256 i = 0; i < recipients.length; i++) {\n            require(recipients[i] != address(0), \"INV_ADDR\");\n            tokenToDistribute.safeTransfer(recipients[i], amounts[i]);\n        }\n    }\n\n    // this function is only for an emergency bailout where we need to do an action,\n    // but cannot with the current code\n    function delegateCallLogic(address target, bytes calldata data) external onlyOwner {\n        (bool success, ) = target.delegatecall(data);\n        require(success, \"INV_DELEGATE\");\n    }\n}",
  "sourcePath": "/Users/elliot/Desktop/token-distribution/contracts/TokenDistributor.sol",
  "compiler": {
    "name": "solc",
    "version": "0.8.0+commit.c7dfd78e.Emscripten.clang"
  },
  "schemaVersion": "3.4.1",
  "updatedAt": "2021-06-09T03:07:44.689Z",
  "networkType": "ethereum",
  "devdoc": {
    "kind": "dev",
    "methods": {
      "owner()": {
        "details": "Returns the address of the current owner."
      },
      "renounceOwnership()": {
        "details": "Leaves the contract without owner. It will not be possible to call `onlyOwner` functions anymore. Can only be called by the current owner. NOTE: Renouncing ownership will leave the contract without an owner, thereby removing any functionality that is only available to the owner."
      },
      "transferOwnership(address)": {
        "details": "Transfers ownership of the contract to a new account (`newOwner`). Can only be called by the current owner."
      }
    },
    "version": 1
  },
  "userdoc": {
    "kind": "user",
    "methods": {},
    "version": 1
  }
}